{
  "_format": "hh-sol-artifact-1",
  "contractName": "Todo",
  "sourceName": "contracts/Todo.sol",
  "abi": [
    {
      "anonymous": false,
      "inputs": [
        {
          "indexed": false,
          "internalType": "uint256",
          "name": "id",
          "type": "uint256"
        },
        {
          "indexed": false,
          "internalType": "uint256",
          "name": "date",
          "type": "uint256"
        },
        {
          "indexed": false,
          "internalType": "string",
          "name": "content",
          "type": "string"
        },
        {
          "indexed": false,
          "internalType": "string",
          "name": "author",
          "type": "string"
        },
        {
          "indexed": false,
          "internalType": "bool",
          "name": "done",
          "type": "bool"
        }
      ],
      "name": "TaskCreated",
      "type": "event"
    },
    {
      "anonymous": false,
      "inputs": [
        {
          "indexed": false,
          "internalType": "uint256",
          "name": "id",
          "type": "uint256"
        },
        {
          "indexed": false,
          "internalType": "bool",
          "name": "done",
          "type": "bool"
        },
        {
          "indexed": false,
          "internalType": "uint256",
          "name": "date",
          "type": "uint256"
        }
      ],
      "name": "TaskStatusToggled",
      "type": "event"
    },
    {
      "inputs": [
        {
          "internalType": "string",
          "name": "_content",
          "type": "string"
        },
        {
          "internalType": "string",
          "name": "_author",
          "type": "string"
        }
      ],
      "name": "createTask",
      "outputs": [],
      "stateMutability": "nonpayable",
      "type": "function"
    },
    {
      "inputs": [],
      "name": "getTasks",
      "outputs": [
        {
          "components": [
            {
              "internalType": "uint256",
              "name": "id",
              "type": "uint256"
            },
            {
              "internalType": "uint256",
              "name": "date",
              "type": "uint256"
            },
            {
              "internalType": "string",
              "name": "content",
              "type": "string"
            },
            {
              "internalType": "string",
              "name": "author",
              "type": "string"
            },
            {
              "internalType": "bool",
              "name": "done",
              "type": "bool"
            },
            {
              "internalType": "uint256",
              "name": "dateComplete",
              "type": "uint256"
            }
          ],
          "internalType": "struct Todo.Task[]",
          "name": "",
          "type": "tuple[]"
        }
      ],
      "stateMutability": "view",
      "type": "function"
    },
    {
      "inputs": [],
      "name": "nextTaskId",
      "outputs": [
        {
          "internalType": "uint256",
          "name": "",
          "type": "uint256"
        }
      ],
      "stateMutability": "view",
      "type": "function"
    },
    {
      "inputs": [
        {
          "internalType": "uint256",
          "name": "",
          "type": "uint256"
        }
      ],
      "name": "tasks",
      "outputs": [
        {
          "internalType": "uint256",
          "name": "id",
          "type": "uint256"
        },
        {
          "internalType": "uint256",
          "name": "date",
          "type": "uint256"
        },
        {
          "internalType": "string",
          "name": "content",
          "type": "string"
        },
        {
          "internalType": "string",
          "name": "author",
          "type": "string"
        },
        {
          "internalType": "bool",
          "name": "done",
          "type": "bool"
        },
        {
          "internalType": "uint256",
          "name": "dateComplete",
          "type": "uint256"
        }
      ],
      "stateMutability": "view",
      "type": "function"
    },
    {
      "inputs": [
        {
          "internalType": "uint256",
          "name": "id",
          "type": "uint256"
        }
      ],
      "name": "toggleDone",
      "outputs": [],
      "stateMutability": "nonpayable",
      "type": "function"
    }
  ],
  "bytecode": "0x608060405234801561001057600080fd5b50610f22806100206000396000f3fe608060405234801561001057600080fd5b50600436106100575760003560e01c806304a87e381461005c578063292a45851461007a5780638d97767214610096578063d81ef739146100cb578063fdc3d8d7146100e7575b600080fd5b610064610105565b60405161007191906109b2565b60405180910390f35b610094600480360381019061008f9190610b1d565b610321565b005b6100b060048036038101906100ab9190610bc1565b610441565b6040516100c296959493929190610c56565b60405180910390f35b6100e560048036038101906100e09190610bc1565b61059a565b005b6100ef6106b2565b6040516100fc9190610cc5565b60405180910390f35b6060600060015467ffffffffffffffff811115610125576101246109f2565b5b60405190808252806020026020018201604052801561015e57816020015b61014b6106b8565b8152602001906001900390816101435790505b50905060005b600154811015610319576000808281526020019081526020016000206040518060c001604052908160008201548152602001600182015481526020016002820180546101af90610d0f565b80601f01602080910402602001604051908101604052809291908181526020018280546101db90610d0f565b80156102285780601f106101fd57610100808354040283529160200191610228565b820191906000526020600020905b81548152906001019060200180831161020b57829003601f168201915b5050505050815260200160038201805461024190610d0f565b80601f016020809104026020016040519081016040528092919081815260200182805461026d90610d0f565b80156102ba5780601f1061028f576101008083540402835291602001916102ba565b820191906000526020600020905b81548152906001019060200180831161029d57829003601f168201915b505050505081526020016004820160009054906101000a900460ff161515151581526020016005820154815250508282815181106102fb576102fa610d41565b5b6020026020010181905250808061031190610d9f565b915050610164565b508091505090565b6040518060c00160405280600154815260200142815260200183815260200182815260200160001515815260200160008152506000806001548152602001908152602001600020600082015181600001556020820151816001015560408201518160020190805190602001906103989291906106f0565b5060608201518160030190805190602001906103b59291906106f0565b5060808201518160040160006101000a81548160ff02191690831515021790555060a082015181600501559050507fb322bdd3250d405f7845d27fa1f0753f8f7e18e40886bc254b89005c3e9c0324600154428484600060405161041d959493929190610de8565b60405180910390a16001600081548092919061043890610d9f565b91905055505050565b600060205280600052604060002060009150905080600001549080600101549080600201805461047090610d0f565b80601f016020809104026020016040519081016040528092919081815260200182805461049c90610d0f565b80156104e95780601f106104be576101008083540402835291602001916104e9565b820191906000526020600020905b8154815290600101906020018083116104cc57829003601f168201915b5050505050908060030180546104fe90610d0f565b80601f016020809104026020016040519081016040528092919081815260200182805461052a90610d0f565b80156105775780601f1061054c57610100808354040283529160200191610577565b820191906000526020600020905b81548152906001019060200180831161055a57829003601f168201915b5050505050908060040160009054906101000a900460ff16908060050154905086565b60008060008381526020019081526020016000206000015414156105f3576040517f08c379a00000000000000000000000000000000000000000000000000000000081526004016105ea90610e95565b60405180910390fd5b600080600083815260200190815260200160002090508060040160009054906101000a900460ff16158160040160006101000a81548160ff0219169083151502179055508060040160009054906101000a900460ff16610654576000610656565b425b81600501819055507fcb1ceae718a6ae11d5daf00e292e318717e0acf2d326ed670df0e5ff67ba5000828260040160009054906101000a900460ff1683600501546040516106a693929190610eb5565b60405180910390a15050565b60015481565b6040518060c0016040528060008152602001600081526020016060815260200160608152602001600015158152602001600081525090565b8280546106fc90610d0f565b90600052602060002090601f01602090048101928261071e5760008555610765565b82601f1061073757805160ff1916838001178555610765565b82800160010185558215610765579182015b82811115610764578251825591602001919060010190610749565b5b5090506107729190610776565b5090565b5b8082111561078f576000816000905550600101610777565b5090565b600081519050919050565b600082825260208201905092915050565b6000819050602082019050919050565b6000819050919050565b6107d2816107bf565b82525050565b600081519050919050565b600082825260208201905092915050565b60005b838110156108125780820151818401526020810190506107f7565b83811115610821576000848401525b50505050565b6000601f19601f8301169050919050565b6000610843826107d8565b61084d81856107e3565b935061085d8185602086016107f4565b61086681610827565b840191505092915050565b60008115159050919050565b61088681610871565b82525050565b600060c0830160008301516108a460008601826107c9565b5060208301516108b760208601826107c9565b50604083015184820360408601526108cf8282610838565b915050606083015184820360608601526108e98282610838565b91505060808301516108fe608086018261087d565b5060a083015161091160a08601826107c9565b508091505092915050565b6000610928838361088c565b905092915050565b6000602082019050919050565b600061094882610793565b610952818561079e565b935083602082028501610964856107af565b8060005b858110156109a05784840389528151610981858261091c565b945061098c83610930565b925060208a01995050600181019050610968565b50829750879550505050505092915050565b600060208201905081810360008301526109cc818461093d565b905092915050565b6000604051905090565b600080fd5b600080fd5b600080fd5b600080fd5b7f4e487b7100000000000000000000000000000000000000000000000000000000600052604160045260246000fd5b610a2a82610827565b810181811067ffffffffffffffff82111715610a4957610a486109f2565b5b80604052505050565b6000610a5c6109d4565b9050610a688282610a21565b919050565b600067ffffffffffffffff821115610a8857610a876109f2565b5b610a9182610827565b9050602081019050919050565b82818337600083830152505050565b6000610ac0610abb84610a6d565b610a52565b905082815260208101848484011115610adc57610adb6109ed565b5b610ae7848285610a9e565b509392505050565b600082601f830112610b0457610b036109e8565b5b8135610b14848260208601610aad565b91505092915050565b60008060408385031215610b3457610b336109de565b5b600083013567ffffffffffffffff811115610b5257610b516109e3565b5b610b5e85828601610aef565b925050602083013567ffffffffffffffff811115610b7f57610b7e6109e3565b5b610b8b85828601610aef565b9150509250929050565b610b9e816107bf565b8114610ba957600080fd5b50565b600081359050610bbb81610b95565b92915050565b600060208284031215610bd757610bd66109de565b5b6000610be584828501610bac565b91505092915050565b610bf7816107bf565b82525050565b600082825260208201905092915050565b6000610c19826107d8565b610c238185610bfd565b9350610c338185602086016107f4565b610c3c81610827565b840191505092915050565b610c5081610871565b82525050565b600060c082019050610c6b6000830189610bee565b610c786020830188610bee565b8181036040830152610c8a8187610c0e565b90508181036060830152610c9e8186610c0e565b9050610cad6080830185610c47565b610cba60a0830184610bee565b979650505050505050565b6000602082019050610cda6000830184610bee565b92915050565b7f4e487b7100000000000000000000000000000000000000000000000000000000600052602260045260246000fd5b60006002820490506001821680610d2757607f821691505b60208210811415610d3b57610d3a610ce0565b5b50919050565b7f4e487b7100000000000000000000000000000000000000000000000000000000600052603260045260246000fd5b7f4e487b7100000000000000000000000000000000000000000000000000000000600052601160045260246000fd5b6000610daa826107bf565b91507fffffffffffffffffffffffffffffffffffffffffffffffffffffffffffffffff821415610ddd57610ddc610d70565b5b600182019050919050565b600060a082019050610dfd6000830188610bee565b610e0a6020830187610bee565b8181036040830152610e1c8186610c0e565b90508181036060830152610e308185610c0e565b9050610e3f6080830184610c47565b9695505050505050565b7f7461736b20646f6573206e6f7420657869737400000000000000000000000000600082015250565b6000610e7f601383610bfd565b9150610e8a82610e49565b602082019050919050565b60006020820190508181036000830152610eae81610e72565b9050919050565b6000606082019050610eca6000830186610bee565b610ed76020830185610c47565b610ee46040830184610bee565b94935050505056fea2646970667358221220138069d18dfbac101d3c3f2828267e2807dfe2743a006cb0cf23d16d4dbd2fef64736f6c63430008090033",
  "linkReferences": {},
  "deployedLinkReferences": {}
}